:1000000001308A00FC290000FF00030E8301A100DB
:100010007F08A0000A08A7008A01A00E0408A20019
:100020007708A3007808A4007908A5007A08A6003C
:10003000831383120B1E1E288B182F28220884007E
:100040002308F7002408F8002508F9002608FA001C
:1000500027088A00210E8300FF0E7F0E09008A11F7
:1000600031280F08FA000E08F7000F087A02031D66
:1000700031287708A8007A08A9008F018E018B101B
:100080008A111E2840308400831300080319552864
:100090000230F800F701F70B4B28F80B4A2897308D
:1000A000F700F70B5128800B482808000310280D93
:1000B000C200290DC3004308C7004208C6008E30A5
:1000C000F7004708F8004608F900FA01F808031D90
:1000D00073287908F800F9010830F702F808031DC1
:1000E0007328F7017B280310F81B7A28F90DF80D07
:1000F000F7037328F813C9012430C8007430C7000F
:100100009230C6007A08CD007908CC007808CB0080
:100110007708CA00460803194F29D2004A08031974
:100120004F29D202031C99287F30D20703184F2988
:100130009F288130D202031C4F2903194F295208EE
:10014000F700F801F901FA01D1014708D000D017F2
:100150004808CF004908CE001930D2004D08CE0221
:100160000318C2280130CF020318C228D002031896
:10017000C228D1020318C228D10AD00ACF0A4D08DA
:10018000CE07F4284C08CF020318DD280130D00236
:100190000318DD28D1020318DD28D10AD00A4C0843
:1001A000CF074D08CE07031CF428CF0A031DF428FF
:1001B000D00A031DF428D10AF4284B088038D00255
:1001C0000318F3280130D1020318F328D10A4B0891
:1001D0008038D0074C08CF07031CD128D00A031D54
:1001E000D128D10AD1287A14D20BF728022903107A
:1001F000CE0DCF0DD00DD10D0310FA0DF90DF80D68
:10020000D30DAE28531C0A290310F80CF90CFA0C74
:10021000D30C0D29F70303194F29D31B36290310DB
:10022000CE0DCF0DD00DD10D4D08CE0203182229D1
:100230000130CF0203182229D00203182229D1024B
:10024000031C45294C08CF0203182D290130D00288
:1002500003182D29D102031C45294B088038D002F0
:10026000031836290130D102031C4529FA0A031D5F
:100270004529F90A031D4529F80A031D4529F70AEE
:1002800003194F29F80CF90CFA0C4708D2004B0857
:10029000D206D21F4D29F8175329F8135329F70115
:1002A000F801F901FA017A08C9007908C80078084C
:1002B000C7007708C6008E30F7004608F7024708E7
:1002C000F9004808F800F917F70803197229031014
:1002D000F908031D6E29F80803197229F90CF80CA6
:1002E000F70B6729C71F7929F809F909F80A0319D3
:1002F000F90A7908C5007808C4004408F8004508E0
:10030000F90008008316861283128616831686115A
:100310008312861183160612831206120130C00062
:10032000422083168612831286120A30C0004220B1
:100330003B08FA003A08C0003B08C10056204008BC
:100340008400831341188317840A7908800084038A
:10035000780880008316861283128616831686110B
:100360008312861183160612831206160130C0000E
:10037000422083168612831286120A30C000422061
:100380003F08FA003E08C0003F08C1005620400860
:100390008400831341188317840A7908800084033A
:1003A00078088000831686128312861683168611BB
:1003B0008312861583160612831206160130C000BA
:1003C000422083168612831286120A30C000422011
:1003D0003D08FA003C08C0003D08C1005620400816
:1003E0008400831341188317840A790880008403EA
:1003F000780880008A113D2A840183131F30830509
:10040000723083168F000F088312A901A8012230D1
:10041000AA00AB010F30AC0083161F129F121B08FD
:1004200080399B0007309C008312AE01AD01B00102
:10043000AF01B201B101B601B501B401B301B70119
:10044000B801B9018316011783120B168B10C03047
:100450008B04A530900083168610831286108316B5
:10046000061183120615BB012D30BA00BD012F30D5
:10047000BC00BF013130BE0082292A08AD02003025
:10048000031C0130AE022B08AF020030031C013008
:10049000B0022C08B1020030031C0130B2022E0859
:1004A000FA01B700390803178D0003133708031743
:1004B0008C0083168C130C15831203130B08F700A2
:1004C0008B138316031755308D00AA308D008C14C2
:1004D0008C18682A0C117708831203138B042D08DB
:1004E000B70001303907BA003A0803178D0003132B
:1004F000370803178C0083168C130C158312031313
:100500000B08F7008B138316031755308D00AA30A4
:100510008D008C148C188A2A0C117708831203130F
:100520008B043008FA01B70002303907BA003A08E4
:1005300003178D000313370803178C0083168C13E1
:100540000C15831203130B08F7008B138316031784
:1005500055308D00AA308D008C148C18AD2A0C11EA
:100560007708831203138B042F08B7000330390771
:10057000BA003A0803178D000313370803178C00DD
:1005800083168C130C15831203130B08F7008B13BF
:100590008316031755308D00AA308D008C148C18EB
:1005A000CF2A0C117708831203138B043208FA0147
:1005B000B70004303907BA003A0803178D00031357
:1005C000370803178C0083168C130C158312031342
:1005D0000B08F7008B138316031755308D00AA30D4
:1005E0008D008C148C18F22A0C11770883120313D7
:1005F0008B043108B70005303907BA003A080317F1
:100600008D000313370803178C0083168C130C1509
:10061000831203130B08F7008B138316031755304F
:100620008D00AA308D008C148C18142B0C117708B7
:10063000831203138B040730B9072E08013C031CF7
:10064000372B031D272B2D081F3C031C372BB0080D
:10065000031D372B2F08CF3C031C372BB208031D7B
:10066000372B3108CF3C031C372BB801602B3008E7
:100670002E02031C512B031D412B2D082F020318A2
:10068000512B32082E02031C4E2B031D4B2B2D0821
:10069000310203184E2B0130B800502B0330B80044
:1006A000602B32083002031C5E2B031D5B2B2F08CE
:1006B000310203185E2B0230B800602B0330B80003
:1006C0003808013A03196B2B033A0319782B013AC6
:1006D0000319852B922B83168510831285108316A0
:1006E00005118312051183160510831205149F2B23
:1006F0008316051083120510831605118312051148
:1007000083168510831285149F2B83160510831280
:100710000510831685108312851083160511831228
:1007200005159F2B8316051083120510831685105F
:100730008312851083160511831205119F2B39082A
:0C074000EF3C0318A42BB901332A63001E
:04400E00383FFF3FF9
:00000001FF
;PIC16F88
;CRC=F75B  CREATED="28-nov.-14 00:28"
