:1000000005308A00982D0000FF00030E8301A10037
:100010007F08A0000A08A7008A01A00E0408A20019
:100020007708A3007808A4007908A5007A08A6003C
:10003000831383120B1E1E288B182F28220884007E
:100040002308F7002408F8002508F9002608FA001C
:1000500027088A00210E8300FF0E7F0E09008A11F7
:1000600031280F08FA000E08F7000F087A02031D66
:1000700031287708A8007A08A9008F018E018B101B
:100080008A111E288316011783120B168B10C0309D
:100090008B04A53090008316861083128610831679
:1000A0000611831206158A11F72D83168611831205
:1000B00086110C3097008A11F82DA030840083132C
:1000C0000008031970280230F800F701F70B6628C2
:1000D000F80B65289730F700F70B6C28800B632826
:1000E00008008E30F70083162708F8002608F9006C
:1000F000FA01F808031D86287908F800F90108308C
:10010000F702F808031D8628F7018E280310F81B54
:100110008D28F90DF80DF7038628F81383120800CF
:100120008E30F70083162608F7022708F900280802
:10013000F800F917F7080319A8280310F908031D98
:10014000A428F8080319A828F90CF80CF70B9D2827
:10015000A71FAF28F809F909F80A0319F90A831249
:1001600008000310280D8316A2008312290D8316A0
:10017000A3002308A7002208A6008312712083167B
:10018000A9012430A8007430A7009230A6007A0894
:10019000AD007908AC007808AB007708AA00260803
:1001A00003199429B2002A0803199429B202031CE6
:1001B000DE287F30B20703189429E4288130B20288
:1001C000031C9429031994293208F700F801F90156
:1001D000FA01B1012708B000B0172808AF002908BC
:1001E000AE001930B2002D08AE0203180729013005
:1001F000AF0203180729B00203180729B102031838
:100200000729B10AB00AAF0A2D08AE0739292C0810
:10021000AF02031822290130B00203182229B102CB
:1002200003182229B10AB00A2C08AF072D08AE071F
:10023000031C3929AF0A031D3929B00A031D3929C6
:10024000B10A39292B088038B00203183829013047
:10025000B10203183829B10A2B088038B0072C08DE
:10026000AF07031C1629B00A031D1629B10A162967
:100270007A14B20B3C2947290310AE0DAF0DB00D17
:10028000B10D0310FA0DF90DF80DB30DF328331C61
:100290004F290310F80CF90CFA0CB30C5229F70390
:1002A00003199429B31B7B290310AE0DAF0DB00DBC
:1002B000B10D2D08AE02031867290130AF020318F3
:1002C0006729B00203186729B102031C8A292C0888
:1002D000AF02031872290130B00203187229B1026B
:1002E000031C8A292B088038B00203187B290130AF
:1002F000B102031C8A29FA0A031D8A29F90A031D7F
:100300008A29F80A031D8A29F70A03199429F80C87
:10031000F90CFA0C2708B2002B08B206B21F92297A
:10032000F8179829F8139829F701F801F901FA014B
:100330007A08A9007908A8007808A7007708A6001D
:100340008312902079088316A5007808A400240859
:10035000F8002508F9008312080083162008031905
:100360001E2AA800240803191E2AA8070318BF295B
:100370007F30A802031C1E2A03191E2AC3298130BC
:10038000A80703181E2A2808F700F801F901FA0146
:100390002108AC00AC172208AB002308AA001830D3
:1003A000A800A9012A1CEC292708FA07031CDE294A
:1003B000F90A031DDE29F80A0319A9172608F90707
:1003C000031CE529F80A0319A9172508A200A2179A
:1003D0002208F8070318A917A90DF80CF90CFA0C54
:1003E000AC0CAB0CAA0C0310A80BD1290130F707F9
:1003F00003181E2AF81B032AAC0DFA0DF90DF80D8F
:10040000F70303191E2AAC1F142AFA0A031D142A23
:10041000F90A031D142AF80A031D142AF80CF90C12
:10042000FA0CF70A03191E2A2108A9002508A906B3
:10043000A91F1C2AF817222AF813222AF701F8010B
:10044000F901FA018312080083162108A800250883
:10045000A806A81F302A03110310A11B0314632A46
:100460002108A8002408A9002008A90203193E2A8F
:10047000A81F632A0308013A8300632A2508A900FC
:100480002108A90203194A2AA81F632A0308013A6E
:100490008300632A2608A9002208A9020319562A04
:1004A000A81F632A0308013A8300632A2708A900CA
:1004B0002308A9020319622AA81F632A0308013A24
:1004C0008300632A031083120800831686128312A6
:1004D00086168316061383120613831606128312DA
:1004E000061201308316A00083125D208316861247
:1004F000831286120A308316A00083125D20B12079
:100500007908F5007808F4002E087802F7007908D9
:10051000FA000030031C0130FA0277088316A600A7
:100520007A08A700831271207A08EB007908EA00A4
:100530007808E9007708E8006B088316A3008312A7
:100540006A088316A200831269088316A100831229
:1005500068088316A000831234088316A70083124C
:1005600033088316A600831232088316A50083126F
:1005700031088316A4008312AD217A08EB007908B4
:10058000EA007808E9007708E8006B088316A30002
:1005900083126A088316A200831269088316A100D9
:1005A000831268088316A000A701A601A501A40173
:1005B00083122422031CE62A600884008313611836
:1005C0008317840A800184038001042B6108FA00E8
:1005D000600884008313611883176B088316A900D1
:1005E00083126A088316A800831269088316A7007D
:1005F000831268088316A60083129020840A790863
:100600008000840378088000831686128312861681
:100610008316061383120613831606128312061618
:1006200001308316A00083125D2083168612831288
:1006300086120A308316A00083125D20B12079084B
:10064000F5007808F40030087802F7007908FA001D
:100650000030031C0130FA0277088316A6007A08DE
:10066000A700831271207A08F3007908F200780855
:10067000F1007708F00073088316A3007208A20047
:100680007108A1007008A00083123C088316A7001F
:1006900083123B088316A60083123A088316A5002E
:1006A000831239088316A4008312AD217A08F3005F
:1006B0007908F2007808F1007708F00073088316D3
:1006C000A3007208A2007108A1007008A000A70191
:1006D000A601A501A40183122422031C792B64081E
:1006E0008400831365188317840A800184038001C2
:1006F000912B6508FA00640884008313651883173A
:1007000073088316A9007208A8007108A700700872
:10071000A60083129020840A790880008403780858
:1007200080008316861283128616831606138312A0
:100730000617831606128312061601308316A000D0
:1007400083125D2083168612831286120A30831666
:10075000A00083125D20B1207908F5007808F4002C
:100760002F087802F7007908FA000030031C0130E6
:10077000FA0277088316A6007A08A7008312712070
:100780007A08EF007908EE007808ED007708EC00B1
:100790006F088316A30083126E088316A2008312CB
:1007A0006D088316A10083126C088316A0008312C3
:1007B00038088316A700831237088316A600831211
:1007C00036088316A500831235088316A400831209
:1007D000AD217A08EF007908EE007808ED0077087F
:1007E000EC006F088316A30083126E088316A20024
:1007F00083126D088316A10083126C088316A00073
:10080000A701A601A501A40183122422031C122C16
:1008100062088400831363188317840A80018403A9
:100820008001302C6308FA00620884008313631887
:1008300083176F088316A90083126E088316A80019
:1008400083126D088316A70083126C088316A60016
:1008500083129020840A790880008403780880003D
:1008600083168612831286168316061383120617C2
:10087000831606128312061201308316A00083121B
:100880005D2083168612831286120A308316A0001A
:1008900083125D206708FA006608F4006708F50017
:1008A000B12074088400831375188317840A7908AB
:1008B00080008403780880008A11052E831624089E
:1008C0008400831325188317840A0008FA00840320
:1008D0000008A9007A08AA00A801A7012608270293
:1008E00003189C2C0310270D24078400831325185C
:1008F0008317840A0008AC0084030008AB002A08B0
:100900002C02031C9A2C031D892C2B082902031886
:100910009A2C0310270D24078400831325188317AE
:10092000840A0008FA0084030008A9007A08AA00D3
:100930002708A800A70A6E2C2808F80083120800D0
:10094000E801E901EA01EB01EC01ED01EE01EF0143
:10095000F0010830F3006108E9006008E80065086C
:10096000EB006408EA006308ED006208EC008316FF
:10097000A5016830A4000330A60083125E24780825
:10098000F1006708263C0318CF2CFF3A031DCC2C3E
:100990006608103C0318CF2C0730F3005E2D670863
:1009A0000B3C031CDB2C031DD92C6608B73C031C35
:1009B000DB2CF3015E2D6708193C031CFC2C031D86
:1009C000E52C6608C73C031CFC2C71080319EF2CAE
:1009D000013A0319F22C033A0319F52CF82C0430D0
:1009E000F300FB2C0230F300FB2C0130F300FB2C56
:1009F0000830F300FB2C5E2DFC016830FB00033057
:100A0000FD007C088316A5007B08A4007D08A600D5
:100A100083125E2478088316A100A301A201A0011D
:100A2000FE017D087E020318432D21087E02031972
:100A3000412D03107E0D7B07840083137C188317E0
:100A4000840A0008A50084030008A40023082502E6
:100A5000031C412D031D302D240822020318412DB3
:100A600003107E0D7B07840083137C188317840A90
:100A70000008FA0084030008A2007A08A3007E0898
:100A8000A000FE0A112D2008F8007808F2006E3050
:100A9000710784008313013080006E307207840078
:100AA00083130130800083126E0DFB00FB0DFC30C0
:100AB000FB0503106F0D7B077007F3007308F80048
:100AC0008A111A2EE0080319962DE40101306007FF
:100AD000F8006408FA000318FA0A780DE3007A0DAA
:100AE000E400E30DE40DFC30E3050310640CE200C8
:100AF000630CE1001830F800063892006008831695
:100B0000920083126208F9006108F800F90CF80CF1
:100B1000F90CF80CF90C78089500F90C790C3039BF
:100B2000F7001708CF3977049700972D9501080033
:100B3000840183131F308305723083168F000F08E2
:100B40008312A901A8010A30AD00D730AC004330B0
:100B5000AB007F30AA00A730AE008530AF009530E3
:100B6000B000FA30B4009830B3002730B2007E30C5
:100B7000B100D930B800E930B7004F30B6007E3050
:100B8000B500B830BC005C30BB003D30BA007E30F0
:100B9000B90083161F129F121B0880399B00073073
:100BA0009C008312BE01BD01C001BF01C201C10191
:100BB000C401C301C501C601C701C801C901CA01F9
:100BC000CB01CC01CD01CE01CF01D001D101D201A9
:100BD000D301D401D501D601D701D801D901DA0159
:100BE000DB01DC011130DD00DE01DF014228552888
:100BF000E1013D30E000E3013F30E200E50141303A
:100C0000E400E7014330E600652AC501DF08031D63
:100C10004E2E3E08E1003D08E0004208E300410896
:100C2000E2004008E5003F08E4004408E70043080C
:100C3000E600A02C7808CA004B30450784008313D7
:100C40004A088000C5080319442E4B30450784002C
:100C500083130008E000013045024B3E84008313FB
:100C600000086002031D422E01305D024502031C94
:100C7000412E4A08C9000130DF0083168510831217
:100C80008514442E0130DE00DF08031D4D2E5E0B5F
:100C90004C2EC501DE014D2EC50A062EDF01490886
:100CA0000319682E013A03196B2E033A0319742EA7
:100CB000013A03197D2E073A0319862E013A0319CA
:100CC0008F2E033A0319982E013A0319A12EA52E4F
:100CD000E0016225A82EEE30E00062251430831674
:100CE000A00083125D20A82ED430E00062251430CD
:100CF0008316A00083125D20A82EBD30E00062257F
:100D000014308316A00083125D20A82EB230E000BC
:100D1000622514308316A00083125D20A82E9F3018
:100D2000E000622514308316A00083125D20A82EF7
:100D30008D30E000622514308316A00083125D2000
:100D4000A82E7E30E0006225A82EE0016225A82EA4
:040D5000F82D630017
:04400E00382FFF3F09
:00000001FF
;PIC16F88
;CRC=A623  CREATED="03-ene.-15 19:02"
