:1000000004308A00CC2C0000FF00030E8301A10005
:100010007F08A0000A08A7008A01A00E0408A20019
:100020007708A3007808A4007908A5007A08A6003C
:10003000831383120B1E1E288B182F28220884007E
:100040002308F7002408F8002508F9002608FA001C
:1000500027088A00210E8300FF0E7F0E09008A11F7
:1000600031280F08FA000E08F7000F087A02031D66
:1000700031287708A8007A08A9008F018E018B101B
:100080008A111E288316011783120B168B10C0309D
:100090008B04A53090008316861083128610831679
:1000A0000611831206158A11122D831686118312EA
:1000B00086110C3097008A11132D61308400831350
:1000C0000008031970280230F800F701F70B6628C2
:1000D000F80B65289730F700F70B6C28800B632826
:1000E00008008E30F7006808F8006708F900FA0188
:1000F000F808031D85287908F800F9010830F7028F
:10010000F808031D8528F7018D280310F81B8C289B
:10011000F90DF80DF7038528F81308008E30F70065
:100120006708F7026808F9006908F800F917F70886
:100130000319A5280310F908031DA128F8080319BD
:10014000A528F90CF80CF70B9A28E81FAC28F80939
:10015000F909F80A0319F90A08000310280DE30049
:10016000290DE4006408E8006308E7007120EA0153
:100170002430E9007430E8009230E7007A08EE009D
:100180007908ED007808EC007708EB0067080319A0
:100190008B29F3006B0803198B29F302031CD52864
:1001A0007F30F30703188B29DB288130F302031C0F
:1001B0008B2903198B297308F700F801F901FA015B
:1001C000F2016808F100F1176908F0006A08EF0011
:1001D0001930F3006E08EF020318FE280130F00218
:1001E0000318FE28F1020318FE28F2020318FE2865
:1001F000F20AF10AF00A6E08EF0730296D08F002E2
:10020000031819290130F10203181929F202031801
:100210001929F20AF10A6D08F0076E08EF07031CAE
:100220003029F00A031D3029F10A031D3029F20A92
:1002300030296C088038F10203182F290130F202AE
:1002400003182F29F20A6C088038F1076D08F007AF
:10025000031C0D29F10A031D0D29F20A0D297A1438
:10026000F30B33293E290310EF0DF00DF10DF20DC4
:100270000310FA0DF90DF80DF40DEA28741C462947
:100280000310F80CF90CFA0CF40C4929F7030319C4
:100290008B29F41B72290310EF0DF00DF10DF20DF7
:1002A0006E08EF0203185E290130F00203185E2980
:1002B000F10203185E29F202031C81296D08F00285
:1002C000031869290130F10203186929F202031C9D
:1002D00081296C088038F102031872290130F2027A
:1002E000031C8129FA0A031D8129F90A031D8129AA
:1002F000F80A031D8129F70A03198B29F80CF90C58
:10030000FA0C6808F3006C08F306F31F8929F81744
:100310008F29F8138F29F701F801F901FA017A08FA
:10032000EA007908E9007808E8007708E7008E20FD
:100330007908E6007808E5006508F8006608F90025
:10034000080061080319112AE90065080319112A38
:10035000E9070318B2297F30E902031C112A0319A7
:10036000112AB6298130E9070318112A6908F70014
:10037000F801F901FA016208ED00ED176308EC00DD
:100380006408EB001830E900EA016B1CDF296808FB
:10039000FA07031CD129F90A031DD129F80A031908
:1003A000EA176708F907031CD829F80A0319EA179E
:1003B0006608E300E3176308F8070318EA17EA0D75
:1003C000F80CF90CFA0CED0CEC0CEB0C0310E90B2F
:1003D000C4290130F7070318112AF81BF629ED0D7F
:1003E000FA0DF90DF80DF7030319112AED1F072A6D
:1003F000FA0A031D072AF90A031D072AF80A031D32
:10040000072AF80CF90CFA0CF70A0319112A6208EA
:10041000EA006608EA06EA1F0F2AF817152AF813F9
:10042000152AF701F801F901FA0108006208E9004C
:100430006608E906E91F212A03110310E21B0314D1
:10044000542A6208E9006508EA006108EA02031913
:100450002F2AE91F542A0308013A8300542A660808
:10046000EA006208EA0203193B2AE91F542A03083A
:10047000013A8300542A6708EA006308EA02031974
:10048000472AE91F542A0308013A8300542A6808BE
:10049000EA006408EA020319532AE91F542A0308F0
:1004A000013A8300542A031008008316861283122F
:1004B00086168316061383120613831606128312FA
:1004C00006120130E1005D20831686128312861227
:1004D0000A30E1005D20AD207908E2007808E100F3
:1004E0002E087802F7007908FA000030031C01306A
:1004F000FA027708E7007A08E80071207A08D40049
:100500007908D3007808D2007708D1005408E400B5
:100510005308E3005208E2005108E1003408E80003
:100520003308E7003208E6003108E500A1217A0827
:10053000D4007908D3007808D2007708D100540895
:10054000E4005308E3005208E2005108E100E8012A
:10055000E701E601E5011622031CB82A49088400D8
:1005600083134A188317840A800184038001CE2AEA
:100570004A08FA004908840083134A18831754086C
:10058000EA005308E9005208E8005108E7008E200D
:10059000840A790880008403780880008316861214
:1005A0008312861683160613831206138316061209
:1005B000831206160130E1005D2083168612831235
:1005C00086120A30E1005D20AD207908E20078084B
:1005D000E10030087802F7007908FA000030031CC7
:1005E0000130FA027708E7007A08E80071207A08FB
:1005F000DC007908DB007808DA007708D9005C08AD
:10060000E4005B08E3005A08E2005908E1003C08F6
:10061000E8003B08E7003A08E6003908E500A121B8
:100620007A08DC007908DB007808DA007708D9005E
:100630005C08E4005B08E3005A08E2005908E100A6
:10064000E801E701E601E5011622031C312B4D0804
:10065000840083134E188317840A80018403800169
:10066000472B4E08FA004D08840083134E18831759
:100670005C08EA005B08E9005A08E8005908E7004E
:100680008E20840A7908800084037808800083160D
:100690008612831286168316061383120617831694
:1006A0000612831206160130E1005D2083168612C1
:1006B000831286120A30E1005D20AD207908E20045
:1006C0007808E1002F087802F7007908FA00003076
:1006D000031C0130FA027708E7007A08E80071206D
:1006E0007A08D8007908D7007808D6007708D500AE
:1006F0005808E4005708E3005608E2005508E100F6
:100700003808E8003708E7003608E6003508E50055
:10071000A1217A08D8007908D7007808D600770890
:10072000D5005808E4005708E3005608E2005508D1
:10073000E100E801E701E601E5011622031CAA2B0E
:100740004B08840083134C188317840A80018403A8
:100750008001C02B4C08FA004B08840083134C180E
:1007600083175808EA005708E9005608E8005508BA
:10077000E7008E20840A79088000840378088000CE
:1007800083168612831286168316061383120617A3
:1007900083160612831206120130E1005D208316D3
:1007A0008612831286120A30E1005D205008FA009A
:1007B0004F08E1005008E200AD2061088400831377
:1007C00062188317840A79088000840378088000FF
:1007D0008A11202D67088400831368188317840A00
:1007E0000008FA0084030008EC007A08ED00EB0131
:1007F000EA0169086A020318272C03106A0D6707CB
:100800008400831368188317840A0008EF008403A8
:100810000008EE006D086F02031C252C031D142C2C
:100820006E086C020318252C03106A0D67078400FC
:10083000831368188317840A0008FA0084030008E9
:10084000EC007A08ED006A08EB00EA0AF92B6B0865
:10085000F8000800D101D201D301D401D501D6019D
:10086000D701D801D9010830DC004A08D200490874
:10087000D1004E08D4004D08D3004C08D6004B08D8
:10088000D500E8015130E7000330E900EA23780899
:10089000DA005008173C031C6A2C031D532C4F0828
:1008A000D33C031C6A2C5A0803195D2C013A031926
:1008B000602C033A0319632C662C0430DC00692C8D
:1008C0000230DC00692C0130DC00692C0830DC00CF
:1008D000692CC82CE0015130DF000330E1006008D2
:1008E000E8005F08E7006108E900EA237808E4000F
:1008F000E601E501E301E201610862020318AE2CA2
:10090000640862020319AC2C0310620D5F078400B7
:10091000831360188317840A0008E8008403000822
:10092000E70066086802031CAC2C031D9B2C6708BB
:1009300065020318AC2C0310620D5F07840083135B
:1009400060188317840A0008FA0084030008E50091
:100950007A08E6006208E300E20A7C2C6308F800EB
:100960007808DB0057305A07840083130130800079
:1009700057305B078400831301308000570DDF0080
:10098000DF0DFC30DF050310580D5F075907DC0051
:100990005C08F8008A11312D840183131F30830510
:1009A000723083168F000F088312A901A8010A3044
:1009B000AD00D730AC004330AB007F30AA00A73089
:1009C000AE008530AF009530B000FA30B4009830FA
:1009D000B3002730B2007E30B100D930B800E93022
:1009E000B7004F30B6007E30B500B830BC005C3088
:1009F000BB003D30BA007E30B90083161F129F1233
:100A00001B0880399B0007309C008312BE01BD018A
:100A1000C001BF01C201C101C401C301C501C601BA
:100A2000C70142285528CA013D30C900CC013F30DA
:100A3000CB00CE014130CD00D0014330CF00552A4C
:100A40003E08CA003D08C9004208CC004108CB005E
:100A50004008CE003F08CD004408D0004308CF0036
:100A60002A2C7808C800470803178D00031348088C
:100A700003178C0083168C130C15831203130B08B9
:100A8000F7008B138316031755308D00AA308D00A5
:100A90008C148C18492D0C117708831203138B04C6
:100AA000C70A4708F03C0318562DC701132D6300F1
:04400E00382FFF3F09
:00000001FF
;PIC16F88
;CRC=5768  CREATED="03-ene.-15 15:45"
