:1000000005308A00332D0000FF00030E8301A1009C
:100010007F08A0000A08A7008A01A00E0408A20019
:100020007708A3007808A4007908A5007A08A6003C
:10003000831383120B1E1E288B182F28220884007E
:100040002308F7002408F8002508F9002608FA001C
:1000500027088A00210E8300FF0E7F0E09008A11F7
:1000600031280F08FA000E08F7000F087A02031D66
:1000700031287708A8007A08A9008F018E018B101B
:100080008A111E288316011783120B168B10C0309D
:100090008B04A53090008316861083128610831679
:1000A0000611831206158A11742D83168611831288
:1000B00086110C3097008A11752D593084008313F6
:1000C0000008031970280230F800F701F70B6628C2
:1000D000F80B65289730F700F70B6C28800B632826
:1000E00008008E30F7006408F8006308F900FA0190
:1000F000F808031D85287908F800F9010830F7028F
:10010000F808031D8528F7018D280310F81B8C289B
:10011000F90DF80DF7038528F81308006308031993
:100120005329EF00670803195329EF02031C9D2888
:100130007F30EF0703185329A3288130EF02031CF7
:100140005329031953296F08F700F801F901FA013F
:10015000EE016408ED00ED176508EC006608EB00A1
:100160001930EF006A08EB020318C6280130EC02D0
:100170000318C628ED020318C628EE020318C62885
:10018000EE0AED0AEC0A6A08EB07F8286908EC02A7
:100190000318E1280130ED020318E128EE020318EC
:1001A000E128EE0AED0A6908EC076A08EB07031C70
:1001B000F828EC0A031DF828ED0A031DF828EE0ABA
:1001C000F82868088038ED020318F7280130EE029D
:1001D0000318F728EE0A68088038ED076908EC076D
:1001E000031CD528ED0A031DD528EE0AD5287A145C
:1001F000EF0BFB2806290310EB0DEC0DED0DEE0DBA
:100200000310FA0DF90DF80DF00DB228701C0E292F
:100210000310F80CF90CFA0CF00C1129F703031970
:100220005329F01B3A290310EB0DEC0DED0DEE0DEB
:100230006A08EB02031826290130EC02031826296C
:10024000ED0203182629EE02031C49296908EC0275
:10025000031831290130ED0203183129EE02031C85
:10026000492968088038ED0203183A290130EE0266
:10027000031C4929FA0A031D4929F90A031D4929C2
:10028000F80A031D4929F70A03195329F80CF90C38
:10029000FA0C6408EF006808EF06EF1F5129F81701
:1002A0005729F8135729F701F801F901FA01080055
:1002B0008E30F7005D08F7025E08F9005F08F8006D
:1002C000F917F70803196F290310F908031D6B29A3
:1002D000F80803196F29F90CF80CF70B6429DE1FD5
:1002E0007629F809F909F80A0319F90A0800031030
:1002F000280DD900290DDA005A08E4005908E30056
:100300007120E6012430E5007430E4009230E3000F
:100310007A08EA007908E9007808E8007708E70039
:100320008E207A08E0007908DF007808DE00770880
:10033000DD0058217908DC007808DB005B08F80054
:100340005C08F900080059080319132AE1005D0848
:100350000319132AE1070318B4297F30E102031CB3
:10036000132A0319132AB8298130E1070318132A25
:100370006108F700F801F901FA015A08E500E517EC
:100380005B08E4005C08E3001830E100E201631C54
:10039000E1296008FA07031CD329F90A031DD329B0
:1003A000F80A0319E2175F08F907031CDA29F80AAB
:1003B0000319E2175E08DB00DB175B08F807031878
:1003C000E217E20DF80CF90CFA0CE50CE40CE30C66
:1003D0000310E10BC6290130F7070318132AF81B95
:1003E000F829E50DFA0DF90DF80DF7030319132A95
:1003F000E51F092AFA0A031D092AF90A031D092A19
:10040000F80A031D092AF80CF90CFA0CF70A03196B
:10041000132A5A08E2005E08E206E21F112AF817C2
:10042000172AF813172AF701F801F901FA01080051
:100430006008E7006408E706E71F232A031103109A
:10044000E01B0314562A6008E7006308E8005F0811
:10045000E8020319312AE71F562A0308013A8300EC
:10046000562A6408E8006008E80203193D2AE71FDD
:10047000562A0308013A8300562A6508E8006108F5
:10048000E8020319492AE71F562A0308013A8300A4
:10049000562A6608E8006208E8020319552AE71F91
:1004A000562A0308013A8300562A031008008316CF
:1004B000861283128616831606138312061383167A
:1004C0000612831206120130D9005D2083168612AF
:1004D000831286120A30D9005D2077217908DA006C
:1004E0007808D9002E087802F7007908FA00003061
:1004F000031C0130FA027708E3007A08E400712057
:100500007A08D0007908CF007808CE007708CD00AF
:100510005008DC004F08DB004E08DA004D08D90017
:100520003408E0003308DF003208DE003108DD0067
:10053000A3217A08D0007908CF007808CE00770888
:10054000CD005008E2004F08E1004E08E0004D08E1
:10055000DF00E601E501E401E3011822031CBA2AE9
:1005600047088400831348188317840A8001840392
:100570008001D02A4808FA004708840083134818ED
:1005800083175008E0004F08DF004E08DE004D08DA
:10059000DD005821840A79088000840378088000EF
:1005A0008316861283128616831606138312061389
:1005B00083160612831206160130D9005D208316B9
:1005C0008612831286120A30D9005D2077217908BD
:1005D000DA007808D90030087802F7007908FA00C4
:1005E0000030031C0130FA027708E3007A08E400C7
:1005F00071207A08D8007908D7007808D6007708E3
:10060000D5005808DC005708DB005608DA0055080A
:10061000D9003C08E0003B08DF003A08DE0039085A
:10062000DD00A3217A08D8007908D7007808D60021
:100630007708D5005808E2005708E1005608E000A6
:100640005508DF00E601E501E401E3011822031C7F
:10065000332B4B08840083134C188317840A8001C2
:1006600084038001492B4C08FA004B088400831353
:100670004C1883175808E0005708DF005608DE00C2
:100680005508DD005821840A790880008403780821
:100690008000831686128312861683160613831231
:1006A000061783160612831206160130D9005D2044
:1006B00083168612831286120A30D9005D207721B4
:1006C0007908DA007808D9002F087802F70079084D
:1006D000FA000030031C0130FA027708E3007A08C0
:1006E000E40071207A08D4007908D3007808D20099
:1006F0007708D1005408DC005308DB005208DA0008
:100700005108D9003808E0003708DF003608DE005D
:100710003508DD00A3217A08D4007908D3007808D1
:10072000D2007708D1005408E2005308E1005208D3
:10073000E0005108DF00E601E501E401E3011822D1
:10074000031CAC2B4908840083134A188317840ABE
:10075000800184038001C22B4A08FA004908840002
:1007600083134A1883175408E0005308DF00520827
:10077000DE005108DD005821840A790880008403D6
:10078000780880008A117F2DCF010130CE00480803
:100790004A02031CE52B031DD12B4908470203180D
:1007A000E52B48084C02031CE02B031DDB2B4B08F8
:1007B00047020318E02B4808CF004708CE00E42B7F
:1007C0004C08CF004B08CE00F82B4A084C02031C03
:1007D000F42B031DEF2B4B0849020318F42B4A0896
:1007E000CF004908CE00F82B4C08CF004B08CE00B4
:1007F0004808E4004708E30071207708DF00780824
:10080000E0007908E1007A08E2004F08E4004E08B1
:10081000E30071206208E6006108E5006008E4007A
:100820005F08E3007A08EA007908E9007808E80040
:100830007708E7008E207A08D3007908D20078087C
:10084000D1007708D0004A08E4004908E30071208D
:100850007708DF007808E0007908E1007A08E20014
:100860004F08E4004E08E30071206208E6006108CA
:10087000E5006008E4005F08E3007A08EA00790810
:10088000E9007808E8007708E7008E207A08D700AA
:100890007908D6007808D5007708D4004C08E40021
:1008A0004B08E30071207708DF007808E000790842
:1008B000E1007A08E2004F08E4004E08E3007120EE
:1008C0006208E6006108E5006008E4005F08E300F4
:1008D0007A08EA007908E9007808E8007708E70074
:1008E0008E207A08DB007908DA007808D9007708CA
:1008F000D8002D08E2002C08E1002B08E0002A08AF
:10090000DF005308E6005208E5005108E4005008F3
:10091000E3001822031C8F2C0130DC00902CDC013A
:100920002D08E2002C08E1002B08E0002A08DF0077
:100930005708E6005608E5005508E4005408E300AF
:100940001822031CA62C0130DD00A72CDD012D0888
:10095000E2002C08E1002B08E0002A08DF005B0819
:10096000E6005A08E5005908E4005808E300182298
:10097000031CBD2C0130DE00BE2CDE015C0DDF004F
:10098000DF0DFC30DF0503105E0D5F075D07CD0056
:10099000CD08031DD92C4808023C0318D82CFF3A77
:1009A000031DD62C4708E83C0318D82C0730CD008F
:1009B000F92C4808033C031CF92C031DE32C4708C1
:1009C000E73C031CF92C4A08033C031CF92C031DCB
:1009D000ED2C4908E73C031CF92C4C08033C031C94
:1009E000F92C031DF72C4B08E73C031CF92C0830AD
:1009F000CD004D08F8008A118C2DC7080319312D40
:100A0000CB0101304707F8004B08FA000318FA0A37
:100A1000780DCA007A0DCB00CA0DCB0DFC30CA058B
:100A200003104B0CC9004A0CC8001830F8000638F7
:100A3000920047088316920083124908F90048087B
:100A4000F800F90CF80CF90CF80CF90C7808950082
:100A5000F90C790C3039F7001708CF397704970073
:100A6000322D95010800840183131F3083057230F5
:100A700083168F000F088312A901A8010A30AD0068
:100A8000D730AC004330AB007F30AA00A730AE00B7
:100A90008530AF009530B000B401B301B2017F30B2
:100AA000B100A730B800AE30B7001C30B6007F30C0
:100AB000B5002030BC006330BB000A30BA007F3084
:100AC000B90083161F129F121B0880399B00073044
:100AD0009C008312BE01BD01C001BF01C201C10162
:100AE000C301C401C50142285528C8013D30C700D3
:100AF000CA013F30C900CC014130CB00572A3E0823
:100B0000C8003D08C7004208CA004108C9004008A3
:100B1000CC003F08CB00C42B7808C6004608031958
:100B2000A72D013A0319AA2D033A0319B92D013A49
:100B30000319C82D073A0319D32D013A0319DE2DE5
:100B4000033A0319E92D013A0319F42DF72DC701D2
:100B5000FD24FA2DD430C700FD248316851083129E
:100B600085140430C700FA30D9005D20C70BB32DBF
:100B7000FA2DBD30C700FD2483160511831205151B
:100B80000430C700FA30D9005D20C70BC22DFA2D02
:100B9000B230C700FD240430C700FA30D9005D2010
:100BA000C70BCD2DFA2D9F30C700FD240430C700A0
:100BB000FA30D9005D20C70BD82DFA2D8D30C70033
:100BC000FD240430C700FA30D9005D20C70BE32DA7
:100BD000FA2D7E30C700FD240430C700FA30D9005A
:100BE0005D20C70BEE2DFA2DC701FD24FA2DC7019C
:080BF000FD24FA2D752D6300B0
:04400E00382FFF3F09
:00000001FF
;PIC16F88
;CRC=A23F  CREATED="03-ene.-15 11:19"
