:1000000001308A00FC290000FF00030E8301A100DB
:100010007F08A0000A08A7008A01A00E0408A20019
:100020007708A3007808A4007908A5007A08A6003C
:10003000831383120B1E1E288B182F28220884007E
:100040002308F7002408F8002508F9002608FA001C
:1000500027088A00210E8300FF0E7F0E09008A11F7
:1000600031280F08FA000E08F7000F087A02031D66
:1000700031287708A8007A08A9008F018E018B101B
:100080008A111E283D308400831300080319552867
:100090000230F800F701F70B4B28F80B4A2897308D
:1000A000F700F70B5128800B482808000310280D93
:1000B000BF00290DC0004008C4003F08C3008E30B7
:1000C000F7004408F8004308F900FA01F808031D96
:1000D00073287908F800F9010830F702F808031DC1
:1000E0007328F7017B280310F81B7A28F90DF80D07
:1000F000F7037328F813C6012430C5007430C40018
:100100009230C3007A08CA007908C9007808C8008C
:100110007708C700430803194F29CF004708031980
:100120004F29CF02031C99287F30CF0703184F298E
:100130009F288130CF02031C4F2903194F294F08F4
:10014000F700F801F901FA01CE014408CD00CD17FE
:100150004508CC004608CB001930CF004A08CB0236
:100160000318C2280130CC020318C228CD0203189C
:10017000C228CE020318C228CE0ACD0ACC0A4A08E9
:10018000CB07F4284908CC020318DD280130CD0242
:100190000318DD28CE020318DD28CE0ACD0A49084F
:1001A000CC074A08CB07031CF428CC0A031DF4280B
:1001B000CD0A031DF428CE0AF42848088038CD0261
:1001C0000318F3280130CE020318F328CE0A48089A
:1001D0008038CD074908CC07031CD128CD0A031D60
:1001E000D128CE0AD1287A14CF0BF7280229031080
:1001F000CB0DCC0DCD0DCE0D0310FA0DF90DF80D74
:10020000D00DAE28501C0A290310F80CF90CFA0C7A
:10021000D00C0D29F70303194F29D01B36290310E1
:10022000CB0DCC0DCD0DCE0D4A08CB0203182229E3
:100230000130CC0203182229CD0203182229CE0254
:10024000031C45294908CC0203182D290130CD0291
:1002500003182D29CE02031C452948088038CD02F9
:10026000031836290130CE02031C4529FA0A031D62
:100270004529F90A031D4529F80A031D4529F70AEE
:1002800003194F29F80CF90CFA0C4408CF00480860
:10029000CF06CF1F4D29F8175329F8135329F7011B
:1002A000F801F901FA017A08C6007908C500780852
:1002B000C4007708C3008E30F7004308F7024408F3
:1002C000F9004508F800F917F70803197229031017
:1002D000F908031D6E29F80803197229F90CF80CA6
:1002E000F70B6729C41F7929F809F909F80A0319D6
:1002F000F90A7908C2007808C1004108F8004208EC
:10030000F90008008316861283128616831686115A
:100310008312861183160612831206120130BD0065
:10032000422083168612831286120A30BD004220B4
:100330003808FA003708BD003808BE0056203D08CE
:10034000840083133E188317840A7908800084038D
:10035000780880008316861283128616831686110B
:100360008312861183160612831206160130BD0011
:10037000422083168612831286120A30BD00422064
:100380003C08FA003B08BD003C08BE0056203D0872
:10039000840083133E188317840A7908800084033D
:1003A00078088000831686128312861683168611BB
:1003B0008312861583160612831206160130BD00BD
:1003C000422083168612831286120A30BD00422014
:1003D0003A08FA003908BD003A08BE0056203D0828
:1003E000840083133E188317840A790880008403ED
:1003F000780880008A11382A840183131F3083050E
:10040000723083168F000F088312A901A80183168A
:100410001F129F121B0880399B0007309C0083121B
:10042000AB01AA01AD01AC01AF01AE01B301B20154
:10043000B101B001B401B501B601831601178312F1
:100440000B168B10C0308B04A530900083168610DD
:10045000831286108316061183120615B8012A30FE
:10046000B700BA012C30B900BC012E30BB00822984
:100470002B08FA01B400360803178D000313340863
:1004800003178C0083168C130C15831203130B08AF
:10049000F7008B138316031755308D00AA308D009B
:1004A0008C148C18512A0C117708831203138B04B7
:1004B0002A08B40001303607B700370803178D004B
:1004C0000313340803178C0083168C130C15831246
:1004D00003130B08F7008B138316031755308D0099
:1004E000AA308D008C148C18732A0C117708831293
:1004F00003138B042D08FA01B40002303607B7004D
:10050000370803178D000313340803178C00831674
:100510008C130C15831203130B08F7008B1383162F
:10052000031755308D00AA308D008C148C18962A34
:100530000C117708831203138B042C08B4000330CA
:100540003607B700370803178D0003133408031765
:100550008C0083168C130C15831203130B08F70001
:100560008B138316031755308D00AA308D008C1421
:100570008C18B82A0C117708831203138B042F08E8
:10058000FA01B40004303607B700370803178D00AE
:100590000313340803178C0083168C130C15831275
:1005A00003130B08F7008B138316031755308D00C8
:1005B000AA308D008C148C18DB2A0C11770883125A
:1005C00003138B042E08B40005303607B700370834
:1005D00003178D000313340803178C0083168C1344
:1005E0000C15831203130B08F7008B1383160317E4
:1005F00055308D00AA308D008C148C18FD2A0C11FA
:100600007708831203138B040730B6072B08013CCD
:10061000031C202B031D102B2A081F3C031C202B1E
:10062000AD08031D202B2C08CF3C031C202BAF084A
:10063000031D202B2E08CF3C031C202BB501492B7A
:100640002D082B02031C3A2B031D2A2B2A082C02EF
:1006500003183A2B2F082B02031C372B031D342BB6
:100660002A082E020318372B0130B500392B03302E
:10067000B500492B2F082D02031C472B031D442BCB
:100680002C082E020318472B0230B500492B0330EB
:10069000B5003508013A0319542B033A0319612BAD
:1006A000013A03196E2B7B2B83168510831285105C
:1006B0008316051183120511831605108312051484
:1006C000882B8316051083120510831605118312DB
:1006D00005118316851083128514882B8316051047
:1006E0008312051083168510831285108316051159
:1006F00083120515882B83160510831205108316A7
:100700008510831285108316051183120511882B1D
:0E0710003608EF3C03188D2BB6012E2A63002D
:04400E00383FFF3FF9
:00000001FF
;PIC16F88
;CRC=612B  CREATED="13-nov.-14 20:55"
