:1000000002308A00632A0000FF00030E8301A10072
:100010007F08A0000A08A7008A01A00E0408A20019
:100020007708A3007808A4007908A5007A08A6003C
:10003000831383120B1E1E288B182F28220884007E
:100040002308F7002408F8002508F9002608FA001C
:1000500027088A00210E8300FF0E7F0E09008A11F7
:1000600031280F08FA000E08F7000F087A02031D66
:1000700031287708A8007A08A9008F018E018B101B
:100080008A111E288316011783120B168B10C0309D
:100090008B04A53090008316861083128610831679
:1000A0000611831206158A11862A83168611831279
:1000B00086110C3097008A11872A3C308400831304
:1000C0000008031970280230F800F701F70B6628C2
:1000D000F80B65289730F700F70B6C28800B632826
:1000E00008000310280DBE00290DBF003F08C30003
:1000F0003E08C2008E30F7004308F8004208F900BD
:10010000FA01F808031D8E287908F800F901083073
:10011000F702F808031D8E28F70196280310F81B34
:100120009528F90DF80DF7038E28F813C501243032
:10013000C4007430C3009230C2007A08C900790844
:10014000C8007808C7007708C600420803196A2962
:10015000CE00460803196A29CE02031CB4287F305A
:10016000CE0703186A29BA288130CE02031C6A29F7
:1001700003196A294E08F700F801F901FA01CD01C7
:100180004308CC00CC174408CB004508CA001930FE
:10019000CE004908CA020318DD280130CB0203183B
:1001A000DD28CC020318DD28CD020318DD28CD0A96
:1001B000CC0ACB0A4908CA070F294808CB02031802
:1001C000F8280130CC020318F828CD020318F828CB
:1001D000CD0ACC0A4808CB074908CA07031C0F29D7
:1001E000CB0A031D0F29CC0A031D0F29CD0A0F29A5
:1001F00047088038CC0203180E290130CD020318BD
:100200000E29CD0A47088038CC074808CB07031CC5
:10021000EC28CC0A031DEC28CD0AEC287A14CE0B6E
:1002200012291D290310CA0DCB0DCC0DCD0D0310C5
:10023000FA0DF90DF80DCF0DC9284F1C2529031013
:10024000F80CF90CFA0CCF0C2829F70303196A29CA
:10025000CF1B51290310CA0DCB0DCC0DCD0D490874
:10026000CA0203183D290130CB0203183D29CC02F4
:1002700003183D29CD02031C60294808CB0203184E
:1002800048290130CC0203184829CD02031C6029FB
:1002900047088038CC02031851290130CD02031CD5
:1002A0006029FA0A031D6029F90A031D6029F80A6A
:1002B000031D6029F70A03196A29F80CF90CFA0CD6
:1002C0004308CE004708CE06CE1F6829F8176E29CE
:1002D000F8136E29F701F801F901FA017A08C5004F
:1002E0007908C4007808C3007708C2008E30F70090
:1002F0004208F7024308F9004408F800F917F70824
:1003000003198D290310F908031D8929F808031919
:100310008D29F90CF80CF70B8229C31F9429F809D1
:10032000F909F80A0319F90A7908C1007808C00028
:100330004008F8004108F90008008316861283126D
:10034000861683160613831206138316061283126B
:1003500006120130BC005D208316861283128612BD
:100360000A30BC005D203708FA003608BC003708A8
:10037000BD0071202A087802F7007908FA000030E1
:10038000031C0130FA023C08840083133D188317D4
:10039000840A7A0880008403770880008316861216
:1003A000831286168316061383120613831606120B
:1003B000831206160130BC005D208316861283125C
:1003C00086120A30BC005D203B08FA003A08BC00E7
:1003D0003B08BD0071202C087802F7007908FA006C
:1003E0000030031C0130FA023C08840083133D18DE
:1003F0008317840A7A0880008403770880008316B4
:100400008612831286168316061383120617831626
:100410000612831206160130BC005D208316861278
:10042000831286120A30BC005D203908FA003808B1
:10043000BC003908BD0071202B087802F70079084C
:10044000FA000030031C0130FA023C0884008313D8
:100450003D188317840A7A08800084037708800097
:100460008A11912ABA0101303607F8003A08FA00D9
:100470000318FA0A780DB9007A0DBA00B90DBA0D51
:10048000FC30B90503103A0CB800390CB70018302D
:10049000F800063892003608831692008312380856
:1004A000F9003708F800F90CF80CF90CF80CF90C05
:1004B00078089500F90C790C3039F7001708CF3916
:1004C000770497000800840183131F30830572307E
:1004D00083168F000F088312A901A8012230AA00F9
:1004E000AB010F30AC0083161F129F121B0880391E
:1004F0009B0007309C008312AE01AD01B001AF013B
:10050000B201B101B301B401B50142285528B701C8
:100510002D30B600B9012F30B800BB013130BA0020
:100520009D292A08AD020030031C0130AE022B08C1
:10053000AF020030031C0130B0022C08B1020030C1
:10054000031C0130B2022E08FA01B300350803176C
:100550008D000313330803178C0083168C130C15BE
:10056000831203130B08F7008B1383160317553000
:100570008D00AA308D008C148C18BC2A0C117708C1
:10058000831203138B042D08B30001303507B60026
:10059000360803178D000313330803178C008316E6
:1005A0008C130C15831203130B08F7008B1383169F
:1005B000031755308D00AA308D008C148C18DE2A5C
:1005C0000C117708831203138B043008FA01B3006F
:1005D00002303507B600360803178D0003133308C1
:1005E00003178C0083168C130C15831203130B084E
:1005F000F7008B138316031755308D00AA308D003A
:100600008C148C18012B0C117708831203138B04A4
:100610002F08B30003303507B600360803178D00E6
:100620000313330803178C0083168C130C158312E5
:1006300003130B08F7008B138316031755308D0037
:10064000AA308D008C148C18232B0C117708831280
:1006500003138B043208FA01B30004303507B600E7
:10066000360803178D000313330803178C00831615
:100670008C130C15831203130B08F7008B138316CE
:10068000031755308D00AA308D008C148C18462B22
:100690000C117708831203138B043108B300053063
:1006A0003507B600360803178D0003133308031708
:1006B0008C0083168C130C15831203130B08F700A0
:1006C0008B138316031755308D00AA308D008C14C0
:1006D0008C18682B0C117708831203138B040730D6
:1006E000B5072E08013C031C8B2B031D7B2B2D080B
:1006F0001F3C031C8B2BB008031D8B2B2F08CF3CFA
:10070000031C8B2BB208031D8B2B3108CF3C031C21
:100710008B2BB401B42B30082E02031CA52B031D18
:10072000952B2D082F020318A52B32082E02031C2F
:10073000A22B031D9F2B2D0831020318A22B013081
:10074000B400A42B0330B400B42B32083002031CD5
:10075000B22B031DAF2B2F0831020318B22B02302E
:10076000B400B42B0330B4003408013A0319BF2B92
:10077000033A0319CF2B013A0319DF2BEF2B831612
:1007800085108312851083160511831205118316B7
:10079000051083120514EE30B6003222FF2B8316AB
:1007A0000510831205108316051183120511831697
:1007B000851083128514D430B6003222FF2B8316A5
:1007C0000510831205108316851083128510831679
:1007D000051183120515BD30B6003222FF2B83169A
:1007E0000510831205108316851083128510831659
:1007F000051183120511B230B6003222FF2B3508E5
:0C080000EF3C0318042CB501872A6300AC
:04400E00382FFF3F09
:00000001FF
;PIC16F88
;CRC=E7CB  CREATED="11-dic.-14 00:09"
